:100000000C9434000C9451000C9451000C94510049
:100010000C9451000C9451000C9451000C9451001C
:100020000C9451000C9451000C9451000C9451000C
:100030000C9451000C9451000C9451000C945100FC
:100040000C9451000C9451000C9409020C94510032
:100050000C9451000C9442010C9451000C945100EA
:100060000C9451000C94510011241FBECFEFD8E026
:10007000DEBFCDBF11E0A0E0B1E0E0E9F9E002C0F1
:1000800005900D92AC3FB107D9F721E0ACEFB1E09C
:1000900001C01D92AE3FB207E1F70E94F1000C943F
:1000A000C6040C940000ECE7F0E010828081807FB1
:1000B0008083808180648083808180628083EAE79E
:1000C000F0E01082808187608083808188608083F7
:1000D000808180688083808180648083089580919E
:1000E0000001823059F0833081F0813089F488B189
:1000F000806188B988B18F7D88B9089588B18062A0
:1001000088B988B18F7E88B9089588B1806388B92D
:100110000895F89480E8809361008AB183768AB963
:100120008BB18C698BB987B1806387B988B18F7CBB
:1001300088B984B1806384B985B18F7C85B90E9408
:10014000530060E074E080E00E944E0260E470E0E2
:1001500080E00E949D020E9404030E946F00789438
:10016000089580910001813089F482E0809300013C
:10017000EAE7F0E080818F7780838BE091E00E9456
:10018000190381E291E00E94190328C080910001C7
:100190008230B1F483E080930001EAE7F0E08081EF
:1001A000806880838081806480838AE391E00E94FC
:1001B000190382E591E00E9419030E9442040EC0D7
:1001C00081E080930001EAE7F0E08081806880832D
:1001D00080818064808385B18F7C85B90E946F00A7
:1001E00008950E9489004C990FC02FEF80E792E09C
:1001F000215080409040E1F700C000004C9904C0BD
:100200004C9BFECF0E94B10080910001833099F594
:100210004B990FC02FEF80E792E021508040904033
:10022000E1F700C000004B9904C04B9BFECF0E9439
:1002300054044A990FC02FEF80E792E0215080408C
:100240009040E1F700C000004A9904C04A9BFECFED
:100250000E94EE034F990FC02FEF80E792E02150EC
:1002600080409040E1F700C000004F9904C04F9BD0
:10027000FECF0E9419048FE39CE90197F1F700C0BB
:100280000000B1CF1F920F920FB60F9211242F933F
:100290003F934F935F936F937F938F939F93AF930E
:1002A000BF93EF93FF9380910001813009F0A0C0CC
:1002B0008091FC01882329F08091FC01813009F0B4
:1002C00053C0ECE7F0E080818F7D8083209178003F
:1002D000309179008091FC0181111FC0A7ECB1E041
:1002E0000E94A3042FEF33E040E050E00E9481041D
:1002F0002F563F4F30930401209303018091030157
:10030000909104019093890080938800ECE7F0E0DD
:100310008081807F8160808321C0A7ECB1E00E9452
:10032000A3042FEF33E040E050E00E9481042F56F9
:100330003F4F309302012093010180910101909180
:10034000020190938B0080938A00ECE7F0E08081BB
:10035000807F826080838081806280838091FC01C5
:100360008F5F8093FC013FC0809179009091FC01E8
:100370009230A9F42DE1829FC00111246FEF70E04B
:100380000E946D046A5F609306018091060187BD3B
:10039000ECE7F0E08081807F8360808316C02DE1F0
:1003A000829FC00111246FEF70E00E946D046A5FAC
:1003B000609305018091050188BDECE7F0E0808144
:1003C000807F808380818F7D80838091FC0190E09D
:1003D000019683709078992324F401978C6F9F6F16
:1003E00001968093FC01EAE7F0E0808180648083DD
:1003F000FF91EF91BF91AF919F918F917F916F91FD
:100400005F914F913F912F910F900FBE0F901F90D2
:1004100018951F920F920FB60F9211242F933F93AE
:100420004F935F936F937F938F939F93AF93BF93FC
:10043000CF93EF93FF938091C000C091C60080914D
:1004400000018230B1F48FEC8C0F843078F480EDB1
:100450008C0F8093070188E691E00E941903C093F6
:10046000C6008FE791E00E94190303C08C2F0E9401
:100470002603FF91EF91CF91BF91AF919F918F9103
:100480007F916F915F914F913F912F910F900FBE90
:100490000F901F90189587BD88BD08959AB19066FA
:1004A0009AB914BC15BC813039F484B5806C84BD14
:1004B00084B5806384BD06C084B5806884BD84B57E
:1004C000806284BD84B5836084BD60347105C1F0F1
:1004D00038F46130710561F06830710569F01CC055
:1004E000611581E0780781F06115744089F014C0CE
:1004F00085B5816085BD13C085B5826085BD0FC09F
:1005000085B5836085BD0BC085B5846085BD07C09A
:1005100085B5856085BD03C085B5816085BD809149
:100520000A010E944B0208959093890080938800ED
:1005300090938B0080938A00089594B1966094B94B
:100540001092800010928100813049F4E0E8F0E0E0
:100550008081806C808380818063808308C0E0E834
:10056000F0E0808180688083808180628083E0E821
:10057000F0E0808182608083E1E8F0E08081886142
:10058000808360347105E1F038F46130710561F009
:100590006830710579F026C0611581E07807B1F007
:1005A00061157440C9F01EC0E1E8F0E0808181600F
:1005B00080831DC0E1E8F0E080818260808317C005
:1005C000E1E8F0E080818360808311C0E1E8F0E041
:1005D0008081846080830BC0E1E8F0E080818560E9
:1005E000808305C0E1E8F0E080818160808387E856
:1005F00093E1909387008093860080910801909109
:1006000009010E94940208958AB182608AB98AB170
:100610008E7F8AB91092C00088E98093C10086E07D
:100620008093C20087E690E09093C5008093C40059
:100630000895FC0107C09091C00095FFFCCF319652
:100640008093C60080818111F6CF0895CF93C82F83
:10065000809107018230E1F018F4813031F048C018
:10066000833049F18430B1F143C02C2F30E0A7EC46
:10067000B1E00E94A3042FEF30E040E050E00E9480
:1006800081042F563F4F309389002093880030C05B
:100690002C2F30E0A7ECB1E00E94A3042FEF30E054
:1006A00040E050E00E9481042F563F4F30938B0072
:1006B00020938A001DC02C2F30E0ADE1B0E00E94F5
:1006C000A3042FEF30E040E050E00E9481042A5F55
:1006D00027BD0EC02C2F30E0ADE1B0E00E94A30496
:1006E0002FEF30E040E050E00E9481042A5F28BDF7
:1006F00087E991E00E94190380910701805D809352
:10070000C60080EA91E00E941903C43648F089E2ED
:10071000C89F812D112482958F70805D8093C600C3
:10072000CA30B0F08DECC89F912D11249695969506
:100730009695989F812D1124869586958695880F8C
:10074000282F220F220F820F981B905D9093C600D6
:100750008DECC89F812D1124869586958695880FEE
:10076000982F990F990F890FC81BC05DC093C600C1
:10077000CF910895F999FECF90E0880F991F92BD0F
:1007800081BD60BD2FB324602FBB2FB322602FBB70
:10079000F999FECF019692BD81BD70BD8FB3846083
:1007A0008FBB8FB382608FBB0895F999FECF90E025
:1007B000880F991F92BD81BD2FB321602FBB20B53B
:1007C000F999FECF019692BD81BD8FB381608FBB39
:1007D00080B590E0982F8827822B0895CF93C09101
:1007E000FD01CC0FCC0FCC0F609188007091890077
:1007F0008C2F0E94BA0360918A0070918B0082E076
:100800008C0F0E94BA0367B570E084E08C0F0E94E1
:10081000BA0368B570E086E08C0F0E94BA0389EBDA
:1008200091E00E94190385E691E00E941903CF919F
:100830000895CF93C091FD01CC0FCC0FCC0F8C2F1E
:100840000E94D503909389008093880082E08C0FEA
:100850000E94D50390938B0080938A0084E08C0FD4
:100860000E94D50387BD86E08C0F0E94D50388BD0A
:1008700081ED91E00E94190385E691E00E94190341
:10088000CF91089585B18F7C85B98091FD0180FF5E
:1008900003C085B1806185B98091FD0181FF03C0EE
:1008A00085B1806285B908958091FD0190E001963F
:1008B00083709078992324F401978C6F9F6F019631
:1008C0008093FD0182EE91E00E94190385E691E09C
:1008D0000E9419030E944204089597FB072E16F404
:1008E000009407D077FD09D00E94B20407FC05D020
:1008F0003EF4909581959F4F0895709561957F4F37
:100900000895A1E21A2EAA1BBB1BFD010DC0AA1F50
:10091000BB1FEE1FFF1FA217B307E407F50720F068
:10092000A21BB30BE40BF50B661F771F881F991FE3
:100930001A9469F760957095809590959B01AC012C
:10094000BD01CF010895A29FB001B39FC001A39F35
:10095000700D811D1124911DB29F700D811D1124F8
:10096000911D0895AA1BBB1B51E107C0AA1FBB1F05
:10097000A617B70710F0A61BB70B881F991F5A952B
:10098000A9F780959095BC01CD010895F894FFCF0B
:1009900001770177011919017701230A4D6F646FFF
:1009A000205541525420616374697661646F0D0A69
:1009B0000053656C656363696F6E6520736572765D
:1009C0006F2028312D34293A20000A4D6F646F20A2
:1009D000454550524F4D20616374697661646F0DD7
:1009E0000A00446972656363696F6E2061637475A0
:1009F000616C3A20300D0A000D0A536572766F2043
:100A000073656C656363696F6E61646F3A20000D96
:100A10000A496E67726573652076616C6F7220415A
:100A2000534349493A20000D0A536572766F2000FE
:100A3000202D3E20436172616374657220696E6788
:100A400072657361646F3A20000D0A4775617264C4
:100A500061646F20656E20646972656363696F6E9F
:100A6000000D0A56616C6F72206D6F737472616451
:100A70006F00446972656363696F6E20454550522B
:0C0A80004F4D2063616D6269616461008C
:00000001FF
